:020000021000EC
:100000007884012019A70100A9F60200D1A60100F9
:10001000D1A60100D1A60100D1A60100D1A6010000
:10002000000000000000000000000000299801000E
:10003000D1A6010000000000C5970100D1A6010073
:10004000C1980100C1980100C1980100C198010048
:10005000C1980100C1980100C1980100C198010038
:10006000C1980100C1980100C1980100C198010028
:10007000C1980100C1980100C1980100C198010018
:10008000C1980100C1980100C1980100C198010008
:10009000C1980100C1980100C1980100C1980100F8
:1000A000C1980100C1980100C1980100C1980100E8
:1000B000C1980100C1980100C1980100C1980100D8
:1000C000C1980100C1980100C1980100C1980100C8
:1000D000C1980100C1980100C1980100C1980100B8
:1000E000C1980100C1980100C1980100C1980100A8
:1000F000C1980100C1980100C1980100C198010098
:10010000C1980100C1980100C1980100C198010087
:10011000C1980100C1980100C1980100C198010077
:10012000C1980100C1980100C1980100C198010067
:10013000C1980100C1980100C1980100C198010057
:04014000C198010061
:04014400FFFFFFFFBB
:1001480081F0004102E000BF83F0004330B54FEA80
:1001580041044FEA430594EA050F08BF90EA020FED
:100168001FBF54EA000C55EA020C7FEA645C7FEA80
:10017800655C00F0E2804FEA5454D4EB5555B8BFA3
:100188006D420CDD2C4480EA020281EA030382EA14
:10019800000083EA010180EA020281EA0303362DA6
:1001A80088BF30BD11F0004F4FEA01314FF4801C79
:1001B8004CEA113102D0404261EB410113F0004F8B
:1001C8004FEA03334CEA133302D0524263EB430342
:1001D80094EA050F00F0A780A4F10104D5F1200EE0
:1001E8000DDB02FA0EFC22FA05F2801841F100013B
:1001F80003FA0EF2801843FA05F359410EE0A5F10F
:1002080020050EF1200E012A03FA0EFC28BF4CF03F
:10021800020C43FA05F3C01851EBE37101F00045F5
:1002280007D54FF0000EDCF1000C7EEB00006EEB02
:100238000101B1F5801F1BD3B1F5001F0CD349088C
:100248005FEA30004FEA3C0C04F101044FEA4452E3
:1002580012F5800F80F09A80BCF1004F08BF5FEA6A
:10026800500C50F1000041EB045141EA050130BD4A
:100278005FEA4C0C404141EB0101013C28BFB1F55C
:10028800801FE9D291F0000F04BF01460020B1FAA7
:1002980081F308BF2033A3F10B03B3F120020CDA7A
:1002A8000C3208DD02F1140CC2F10C0201FA0CF058
:1002B80021FA02F10CE002F11402D8BFC2F1200CBD
:1002C80001FA02F120FA0CFCDCBF41EA0C01904073
:1002D800E41AA2BF01EB0451294330BD6FEA0404BC
:1002E8001F3C1CDA0C340EDC04F11404C4F12002A7
:1002F80020FA04F001FA02F340EA030021FA04F3B9
:1003080045EA030130BDC4F10C04C4F1200220FA0F
:1003180002F001FA04F340EA0300294630BD21FA4D
:1003280004F0294630BD94F0000F83F4801306BF13
:1003380081F480110134013D4EE77FEA645C18BF07
:100348007FEA655C29D094EA050F08BF90EA020F9E
:1003580005D054EA000C04BF1946104630BD91EA96
:10036800030F1EBF0021002030BD5FEA545C05D199
:100378004000494128BF41F0004130BD14F58004D8
:100388003CBF01F5801130BD01F0004545F0FE414C
:1003980041F470014FF0000030BD7FEA645C1ABF81
:1003A800194610467FEA655C1CBF0B46024650EAB8
:1003B800013406BF52EA033591EA030F41F40021E4
:1003C80030BD00BF90F0000F04BF0021704730B56A
:1003D8004FF4806404F132044FF000054FF000013F
:1003E80050E700BF90F0000F04BF0021704730B500
:1003F8004FF4806404F1320410F0004548BF4042D5
:100408004FF000013EE700BF42004FEAE2014FEA29
:1004180031014FEA02701FBF12F07F4393F07F4F04
:1004280081F06051704732F07F4208BF704793F007
:100438007F4F04BF41F40021704730B54FF460741A
:1004480001F0004521F000411CE700BF50EA01021D
:1004580008BF704730B54FF000050AE050EA0102C6
:1004680008BF704730B511F0004502D5404261EB36
:1004780041014FF4806404F132045FEA915C3FF477
:10048800D8AE4FF003025FEADC0C18BF03325FEA14
:10049800DC0C18BF033202EBDC02C2F1200300FAC5
:1004A80003FC20FA02F001FA03FE40EA0E0021FAEA
:1004B80002F11444BDE600BF70B54FF0FF0C4CF4D8
:1004C800E06C1CEA11541DBF1CEA135594EA0C0F8A
:1004D80095EA0C0F00F0DEF82C4481EA030621EAC5
:1004E8004C5123EA4C5350EA013518BF52EA033500
:1004F80041F4801143F4801338D0A0FB02CE4FF0B2
:100508000005E1FB02E506F00042E0FB03E54FF0E1
:100518000006E1FB03569CF0000F18BF4EF0010ED9
:10052800A4F1FF04B6F5007F64F5407404D25FEAD5
:100538004E0E6D4146EB060642EAC62141EA555188
:100548004FEAC52040EA5E504FEACE2EB4F1FD0CCA
:1005580088BFBCF5E06F1ED8BEF1004F08BF5FEA48
:10056800500E50F1000041EB045170BD06F00046FA
:1005780046EA010140EA020081EA0301B4EB5C04A7
:10058800C2BFD4EB0C0541EA045170BD41F480119F
:100598004FF0000E013C00F3AB8014F1360FDEBFC4
:1005A800002001F0004170BDC4F10004203C35DAA0
:1005B8000C341BDC04F11404C4F1200500FA05F323
:1005C80020FA04F001FA05F240EA020001F00042C4
:1005D80021F0004110EBD37021FA04F642EB06013A
:1005E8005EEA430E08BF20EAD37070BDC4F10C0464
:1005F800C4F1200500FA04F320FA05F001FA04F228
:1006080040EA020001F0004110EBD37041F1000113
:100618005EEA430E08BF20EAD37070BDC4F120051E
:1006280000FA05F24EEA020E20FA04F301FA05F286
:1006380043EA020321FA04F001F0004121FA04F22E
:1006480020EA020000EBD3705EEA430E08BF20EAFE
:10065800D37070BD94F0000F0FD101F00046400038
:1006680041EB010111F4801F08BF013CF7D041EABA
:10067800060195F0000F18BF704703F000465200BE
:1006880043EB030313F4801F08BF013DF7D043EA8F
:100698000603704794EA0C0F0CEA135518BF95EA45
:1006A8000C0F0CD050EA410618BF52EA4306D1D1CC
:1006B80081EA030101F000414FF0000070BD50EAEB
:1006C800410606BF1046194652EA430619D094EA75
:1006D8000C0F02D150EA013613D195EA0C0F05D15F
:1006E80052EA03361CBF104619460AD181EA0301B3
:1006F80001F0004141F0FE4141F470014FF000006B
:1007080070BD41F0FE4141F4780170BD70B54FF005
:10071800FF0C4CF4E06C1CEA11541DBF1CEA135585
:1007280094EA0C0F95EA0C0F00F0A7F8A4EB050467
:1007380081EA030E52EA03354FEA013100F088805E
:100748004FEA03334FF0805545EA131343EA126327
:100758004FEA022245EA111545EA10654FEA0026DC
:100768000EF000419D4208BF964244F1FD0404F595
:10077800407402D25B084FEA3202B61A65EB0305F1
:100788005B084FEA32024FF480104FF4002CB6EBAE
:10079800020E75EB030E22BFB61A754640EA0C002E
:1007A8005B084FEA3202B6EB020E75EB030E22BF6E
:1007B800B61A754640EA5C005B084FEA3202B6EBAF
:1007C800020E75EB030E22BFB61A754640EA9C006E
:1007D8005B084FEA3202B6EB020E75EB030E22BF3E
:1007E800B61A754640EADC0055EA060E18D04FEAFC
:1007F800051545EA16754FEA06164FEAC30343EA9C
:1008080052734FEAC2025FEA1C1CC0D111F4801F68
:100818000BD141EA00014FF000004FF0004CB6E761
:1008280011F4801F04BF01430020B4F1FD0C88BF00
:10083800BCF5E06F3FF6AFAEB5EB030C04BFB6EB0B
:10084800020C5FEA500C50F1000041EB045170BDFE
:100858000EF0004E4EEA113114EB5C04C2BFD4EB2B
:100868000C0541EA045170BD41F480114FF0000EAF
:10087800013C90E645EA060E8DE60CEA135594EA2B
:100888000C0F08BF95EA0C0F3FF43BAF94EA0C0F2E
:100898000AD150EA01347FF434AF95EA0C0F7FF4A3
:1008A80025AF104619462CE795EA0C0F06D152EAF7
:1008B80003353FF4FDAE1046194622E750EA4106DB
:1008C80018BF52EA43067FF4C5AE50EA41047FF4EC
:1008D8000DAF52EA43057FF4EBAE12E74FF0FF3C51
:1008E80006E000BF4FF0010C02E000BF4FF0010C22
:1008F8004DF804CD4FEA410C7FEA6C5C4FEA430C9B
:1009080018BF7FEA6C5C1BD001B050EA410C0CBFE9
:1009180052EA430C91EA030F02BF90EA020F00204B
:10092800704710F1000F91EA030F58BF994208BFB2
:1009380090422CBFD8176FEAE37040F0010070476F
:100948004FEA410C7FEA6C5C02D150EA013C07D1C6
:100958004FEA430C7FEA6C5CD6D152EA033CD3D011
:100968005DF8040B704700BF8446104662468C460B
:100978001946634600E000BF01B5FFF7B7FF00283E
:1009880048BF10F1000F01BD4DF808EDFFF7F4FF67
:100998000CBF012000205DF808FB00BF4DF808EDF2
:1009A800FFF7EAFF34BF012000205DF808FB00BF15
:1009B8004DF808EDFFF7E0FF94BF012000205DF837
:1009C80008FB00BF4DF808EDFFF7CEFF94BF0120EC
:1009D80000205DF808FB00BF4DF808EDFFF7C4FFE5
:1009E80034BF012000205DF808FB00BF4FEA410C2E
:1009F8007FEA6C5C02D150EA013C0AD14FEA430C11
:100A08007FEA6C5C02D152EA033C02D14FF000004D
:100A180070474FF0010070474FEA410212F500128B
:100A280015D211D56FF47873B3EB625212D94FEA2D
:100A3800C12343F0004343EA505311F0004F23FA17
:100A480002F018BF404270474FF00000704750EA6C
:100A5800013005D111F0004008BF6FF00040704729
:100A68004FF00000704700BF4FEA4102B2F1E04387
:100A780024BFB3F5001CDCF1FE5C0DD901F0004C7D
:100A88004FEAC0024CEA5070B2F1004F40EB8300CD
:100A980008BF20F00100704711F0804F21D113F1F9
:100AA8003872BCBF01F00040704741F480114FEA32
:100AB8005252C2F11802C2F1200C10FA0CF320FABB
:100AC80002F018BF40F001004FEAC1234FEAD323D8
:100AD80003FA0CFC40EA0C0023FA02F34FEA430342
:100AE800CCE77FEA625307D150EA01331EBF4FF0CB
:100AF800FE4040F44000704701F0004040F0FE40E6
:100B080040F40000704700BF80F0004002E000BFE2
:100B180081F0004142001FBF5FEA410392EA030FE0
:100B28007FEA226C7FEA236C6AD04FEA1262D2EB2A
:100B38001363C1BFD218414048404140B8BF5B422F
:100B4800192B88BF704710F0004F40F4000020F0C8
:100B58007F4018BF404211F0004F41F4000121F0DE
:100B68007F4118BF494292EA030F3FD0A2F1010228
:100B780041FA03FC10EB0C00C3F1200301FA03F166
:100B880000F0004302D5494260EB4000B0F5000F89
:100B980013D3B0F1807F06D340084FEA310102F148
:100BA8000102FE2A51D2B1F1004F40EBC25008BFFA
:100BB80020F0010040EA03007047490040EB0000C4
:100BC800013A28BFB0F5000FEDD2B0FA80FCACF1C5
:100BD800080CB2EB0C0200FA0CF0AABF00EBC250F2
:100BE80052421843BCBFD0401843704792F0000FE0
:100BF80081F4000106BF80F400000132013BB5E733
:100C08004FEA41037FEA226C18BF7FEA236C21D0A8
:100C180092EA030F04D092F0000F08BF084670470D
:100C280090EA010F1CBF0020704712F07F4F04D1DB
:100C3800400028BF40F00040704712F100723CBFEE
:100C480000F50000704700F0004343F0FE4040F418
:100C5800000070477FEA226216BF08467FEA2363D6
:100C68000146420206BF5FEA412390EA010F40F4C1
:100C7800800070474FF0000304E000BF10F000430D
:100C880048BF40425FEA000C08BF704743F09643F4
:100C980001464FF000001CE050EA010208BF70470F
:100CA8004FF000030AE000BF50EA010208BF704796
:100CB80011F0004302D5404261EB41015FEA010CAB
:100CC80002BF84460146002043F0B64308BFA3F1A3
:100CD8008053A3F50003BCFA8CF2083AA3EBC25385
:100CE80010DB01FA02FC634400FA02FCC2F12002A4
:100CF800BCF1004F20FA02F243EB020008BF20F0DB
:100D08000100704702F1200201FA02FCC2F1200240
:100D180050EA4C0021FA02F243EB020008BF20EA35
:100D2800DC7070474FF0FF0C1CEAD0521EBF1CEA63
:100D3800D15392EA0C0F93EA0C0F6FD01A4480EA51
:100D4800010C400218BF5FEA41211ED04FF000633A
:100D580043EA501043EA5111A0FB01310CF0004066
:100D6800B1F5000F3EBF490041EAD3715B0040EA8C
:100D7800010062F17F02FD2A1DD8B3F1004F40EB5C
:100D8800C25008BF20F00100704790F0000F0CF02F
:100D9800004C08BF49024CEA502040EA51207F3AF3
:100DA800C2BFD2F1FF0340EAC250704740F40000CE
:100DB8004FF00003013A5DDC12F1190FDCBF00F0BF
:100DC80000407047C2F10002410021FA02F1C2F16D
:100DD800200200FA02FC5FEA310040F1000053EA09
:100DE8004C0308BF20EADC70704792F0000F00F057
:100DF800004C02BF400010F4000F013AF9D040EA5D
:100E08000C0093F0000F01F0004C02BF490011F4F0
:100E1800000F013BF9D041EA0C018FE70CEAD153EE
:100E280092EA0C0F18BF93EA0C0F0AD030F0004C6E
:100E380018BF31F0004CD8D180EA010000F0004022
:100E4800704790F0000F17BF90F0004F084691F0E0
:100E5800000F91F0004F14D092EA0C0F01D142021A
:100E68000FD193EA0C0F03D14B0218BF084608D1E3
:100E780080EA010000F0004040F0FE4040F400002D
:100E8800704740F0FE4040F4400070474FF0FF0CC0
:100E98001CEAD0521EBF1CEAD15392EA0C0F93EA07
:100EA8000C0F69D0A2EB030280EA010C49024FEA59
:100EB800402037D04FF0805343EA111143EA101312
:100EC8000CF000408B4238BF5B0042F17D024FF4CA
:100ED800000C8B4224BF5B1A40EA0C00B3EB510FA5
:100EE80024BFA3EB510340EA5C00B3EB910F24BF8E
:100EF800A3EB910340EA9C00B3EBD10F24BFA3EB13
:100F0800D10340EADC001B0118BF5FEA1C1CE0D1DA
:100F1800FD2A3FF650AF8B4240EBC25008BF20F08D
:100F2800010070470CF0004C4CEA50207F32C2BFE1
:100F3800D2F1FF0340EAC250704740F400004FF07E
:100F48000003013A37E792F0000F00F0004C02BFAF
:100F5800400010F4000F013AF9D040EA0C0093F079
:100F6800000F01F0004C02BF490011F4000F013BD3
:100F7800F9D041EA0C0195E70CEAD15392EA0C0F3B
:100F880008D142027FF47DAF93EA0C0F7FF470AF73
:100F9800084676E793EA0C0F04D14B023FF44CAFB6
:100FA80008466EE730F0004C18BF31F0004CCAD14B
:100FB80030F000427FF45CAF31F000437FF43CAF87
:100FC8005FE700BF7BB972B90029BEBF00204FF0B0
:100FD800004106E008BF00281CBF6FF000414FF039
:100FE800FF3000F075B8ADF1080C6DE904CE0029AA
:100FF80009DB002B1ADB00F0A4F8DDF804E0DDE9DA
:10100800022304B07047404261EB4101002B1BDB17
:1010180000F097F8DDF804E0DDE9022304B040426F
:1010280061EB4101524263EB43037047524263EB69
:10103800430300F086F8DDF804E0DDE9022304B09C
:10104800404261EB41017047524263EB430300F0B9
:1010580078F8DDF804E0DDE9022304B0524263EBDE
:101068004303704753B94AB9002908BF00281CBF79
:101078004FF0FF314FF0FF3000F02AB8ADF1080C07
:101088006DE904CE00F05DF8DDF804E0DDE9022347
:1010980004B07047D0B500220B4B06460F46FFF749
:1010A8000BFA00F017F80446FFF78CF90022074BFB
:1010B800FFF702FA02460B4630463946FFF744F876
:1010C80000F008F82146D0BD0000F03D0000F041D6
:1010D800704700BF4A0011D212F5001211D20DD587
:1010E8006FF47873B3EB62520ED44FEAC12343F026
:1010F800004343EA505323FA02F070474FF00000D0
:10110800704750EA013002D14FF0FF3070474FF07E
:101118000000704738B50022002304460D46FFF74B
:101128003DFC28B920462946BDE83840FFF7B2BF44
:10113800204605F10041FFF7ADFF404261EB410158
:1011480038BD2DE9F04786468C460846089E154668
:1011580074461946002B40F0C1808542B2FA82F2EB
:1011680045D94AB1C2F1200300FA02FC95409440E7
:101178002EFA03F343EA0C0C4FEA154EA8B2230CDF
:10118800BCFBFEF80EFB18CC08FB00F943EA0C4345
:10119800994528D9EB1808F1FF3704D2994502D9A7
:1011A800A8F102072B44A3EB0903A4B2B3FBFEFC8E
:1011B8000EFB1C330CFB00F044EA0344A04214D994
:1011C8002C190CF1FF3304D2A04202D9ACF102036E
:1011D8002C44241A43EA07401EB1D440002334604B
:1011E8007360BDE8F0874746DDE76346F1E792BBE9
:1011F800431B01214FEA154EAFB2200CB3FBFEFC96
:101208000EFB1C330CFB07F840EA0343984561D9F1
:10121800EB180CF1FF3004D2984502D9ACF102006A
:101228002B44A3EB0803A4B2B3FBFEFC0EFB1C3358
:101238000CFB07F744EA0344A7424DD92C190CF1DB
:10124800FF3304D2A74202D9ACF102032C44E41BB9
:1012580043EA0040C0E7C2F120039540944020FAD9
:1012680003F12EFA03F34FEA154E9040AFB2034351
:10127800B1FBFEFC0EFB1C10190C0CFB07F841EA35
:101288000041884522D969180CF1FF3004D28845FD
:1012980002D9ACF102002944A1EB08019BB2B1FBD1
:1012A800FEFC0EFB1C110CFB07F743EA01439F42AF
:1012B8000ED9EB180CF1FF3104D29F4202D9ACF1E0
:1012C80002012B44DB1B41EA004193E76046E3E758
:1012D8006146F7E76046A4E76346B8E7834206D964
:1012E80016B9002108467CE7C6E900E0F9E7B3FA39
:1012F80083F78FB9834201D3724508D8BEEB020445
:1013080060EB030301209C461EB9002169E73846BB
:10131800FAE7C6E9004CF8E7C7F1200CBB400EFA23
:1013280007F522FA0CF42EFA0CF1BA401C4320FA05
:101338000CF3B8404FEA144901431FFA84FEB3FB8B
:10134800F9F809FB18300B0C08FB0EFA43EA0043C6
:101358009A4540D9E31808F1FF3004D29A4502D9DA
:10136800A8F102002344A3EB0A0389B2B3FBF9F8FE
:1013780009FB183308FB0EFE41EA03418E452CD9C0
:10138800611808F1FF3304D28E4502D9A8F102038F
:10139800214443EA0040A1EB0E01A0FB029841451D
:1013A800CE46434602D306D14D4504D20138B9EBA7
:1013B800020E68EB0403002EA7D0B5EB0E0261EB1A
:1013C800030101FA0CFC22FA07F3F9404CEA030383
:1013D800C6E9003199E74046C5E74346D9E710F822
:1013E800012B11F8013B012A28BF9A42F7D0D01AE5
:1013F8007047034613F8012B002AFBD1181A01384D
:10140800704700000000000008B5FEF7FDFF0CA3C0
:10141800D3E90023FEF798FE0BA3D3E90023FFF7D7
:1014280075F900220A4BFFF747F8FFF7F5FA642829
:1014380002DC002802DB08BD6420FCE70020FAE794
:10144800AE47E17A14AEF73FE07A14AE47E1E23FE7
:10145800000059400000000070B584B0012848D150
:101468000C4623F029FEC30B43EA4143C90B264E21
:10147800A3FB062306FB0131C0F30E00A0FB060503
:10148800C30B43EA4543D21841F100012368606861
:10149800A3FB063506FB0055A0681B1845EBE07555
:1014A8009C1A65EB010516A3D3E9002320462946BB
:1014B800FFF788FDCDE9000111A3D3E900232046F9
:1014C8002946FFF77FFD02924FF02003EFF31185C5
:1014D80083F31288BFF36F8F0C4C04AB13E90F0032
:1014E80084E80F0085F31188BFF36F8F002004B0E4
:1014F80070BD1EF0B7F9162303604FF0FF30F6E712
:1015080000CA9A3B0000000000CA9A3BA0D2002003
:1015180002B310B514460F291FD8072804D009288C
:1015280012D06FF07F000EE00F4B33F8110078B146
:10153800FEF758FF0AA3D3E90023FEF7BDFFFFF724
:1015480093FA2060002010BD084B33F81100EEE735
:101558000748F6E76FF0150070476FF01500F2E7DF
:101568007B14AE47E17A24404CBC03002CBC03003A
:101578000AD7A34000000000F8B5C9B204693B29A6
:1015880023D11546E06BFEF72DFF06460F46206C6B
:10159800FEF728FF0EA3D3E90023FFF7B7F80246AA
:1015A8000B4630463946FEF7D1FD06460F46606BBE
:1015B800A36BC01AFEF716FF32463B46FEF77CFFC8
:1015C800FFF72AFA28600020F8BD6FF08500FBE7D6
:1015D8000000000080842E412DE9F84F80460F4618
:1015E80091460E699A460BB94FF0010A0024254628
:1015F80006E03B21384613F041F9736B1D44013472
:10160800A245F6DC95FBFAF54846FEF7DBFE824676
:101618008B46B06B281AFEF7E5FE02460B4650468D
:101628005946FFF773F804460D46FFF7F5F9F063DE
:10163800FEF7D8FE02460B4620462946FEF784FDF3
:1016480007A3D3E90023FEF737FFFFF7E5F9306476
:101658003C3696E8030088E803004046BDE8F88F6A
:101668000000000080842E412DE9F04393B0054628
:101678000C460023119321F043F9002C65D0236810
:10168800002B64D0002330E0652A28D048336B440F
:10169800002203F8442C0DF1040911A9484618F05A
:1016A800F1FF06460F46DDF84480C84551D0C5E92C
:1016B800066729A3D3E90023FFF784F9002833D06C
:1016C8006FF000436B610823EB60A36801AAA8EBE5
:1016D80002084344A360012013B0BDE8F08303F17E
:1016E8004801694401F8442C01333E2BCED8A26846
:1016F8001A4461688A42C9D221688A5C452AC3D8DB
:101708002B2AC3D3A2F12B06F6B20121B140144E05
:101718000E40002EE3D111F0080FB7D003F14802B4
:101728006A4402F8440CDFE700220E4B3046394683
:10173800FFF73EF918B14FF000436B61C3E730463D
:101748003946FFF769F96861BDE70020C4E7002062
:10175800C2E70020C0E700BF0000C0FFFFFFDF4175
:10176800E57F00040000E0C170B504460D46164848
:1017780021F093FA064670B10823C360C0E9064514
:101788000FA3D3E9002320462946FFF71BF920B110
:101798006FF000437361304670BD00220B4B20464A
:1017A8002946FFF705F918B14FF000437361F2E7D6
:1017B80020462946FFF730F97061ECE7AFF3008067
:1017C8000000C0FFFFFFDF4108C800200000E0C1A3
:1017D8002DE9F04F1F469DB000230C4682460E921D
:1017E80018934FF00008974B4FF000091D682846E2
:1017F800FFF7FFFD22468346179213782B2B3BD029
:101808002CD80D2B26D8082B26D8002B2FD0002318
:101818000C93179E3378302B72D1737803F0DF0363
:10182800582B63D10C9B17A9874A5046019318ABD4
:101838000297009319AB19F039FC10F0070504461C
:1018480035D0062D1AD10E9B0BB101361E604046CD
:10185800494637E0202BDAD10132CDE72D2BD6D1FE
:1018680001230C93531C17935378002BD1D10E9B53
:10187800002BECD01C60EAE70023F2E7189A3AB193
:1018880035211AA824F0D5FB1899504619F0E0FE26
:10189800013D199A042D06D8DFE805F01703202327
:1018A8001700DDE91A89210701D549F000490E9B87
:1018B80013B1179B0E9A13600C9B002BC7D04046A0
:1018C80009F100411DB0BDE8F08FDDE91A8302F28D
:1018D800334223F4801343EA0259E4E7DFF86C91BA
:1018E800E1E76FF000494FF0FF38DCE7179B5A1C1F
:1018F80017925B78302BF9D0002BD8D0012300E069
:101908000023002704930A22179BCDE905770A9341
:1019180017980678A6F13003D9B2092924D95A466E
:10192800294624F01EF800282DD000203246059DB7
:1019380083460346652A01D0452A13D11DB9049A66
:10194800024394D00025179C621C179262782B2AB8
:101958006ED02D2A72D04FF0000CA2F13001092967
:101968007AD91794002699E005990130082917902B
:10197800D7BF069902FB073702FB01330693059B85
:1019880001330593C4E7179B03EB0B02179213F877
:101998000B20059BA3B383461D46A2F13003092BF8
:1019A80012D90123C6E7179B01305A1C17925A789F
:1019B800302AF8D0A2F13103082B00F2EA848346DA
:1019C8000020179B05460A93303A00F1010311D015
:1019D8009B4400EB050C2B460A21634512D12B18BA
:1019E8000135082B054419DC06990A2303FB01235A
:1019F80006930023179A1846511C17915278CCE782
:101A08000598D5E7082B03F1010303DC069E4E4336
:101A18000696E2E7102BD8BF4F43DEE70F2BDCBF5B
:101A28000A2303FB0727E4E74FF0000B012386E7AF
:101A38004FF0000CA21C1792A2788EE74FF0010C11
:101A4800F8E700BF00CC030088CB03000000F07F5C
:101A5800179A511C17915278302AF9D0A2F1310106
:101A680008293FF67FAF303A0792179A0D92179AD6
:101A7800561C17965278A2F1300EBEF1090F38D9CC
:101A88000D99761A082E44F61F6603DC07998E42D4
:101A9800A8BF0E46BCF1000F00D07642002D4FD1F2
:101AA800049908437FF403AF002B7FF4E0AE692A62
:101AB80029D026DC492A26D04E2A7FF4D8AE9D4963
:101AC80017A824F054F900283FF4D1AE179B1B78CF
:101AD800282B2FD11AAA984917A824F05CF90528B1
:101AE80028D11B9BDDF8688043F0FF4949F4E009E1
:101AF800DDE6079E0A2101FB0621A1F130020792CB
:101B0800B5E76E2AD9E78D4917A824F030F90028DF
:101B18003FF4ADAE179B17A88949013B179324F0F2
:101B280026F910B9179B01331793DFF818924FF075
:101B38000008BCE684481AF027FE80468946B6E6C7
:101B4800A6EB0B0306982C460F93059B002B08BFAA
:101B58002B46102D0593A8BF1024FEF733FC092D42
:101B68008046894614DCA6EB0B03002B3FF49FAE9E
:101B7800A6EB0B0379DD162B45DC0F9B4246734918
:101B880001EBC3014B46D1E90001FEF795FCD4E710
:101B98006E4B03EBC40353E91223FEF78DFC80461A
:101BA80089463846FEF70EFC02460B464046494633
:101BB800FEF7CCFA0F2D80468946D4DD2C1BA6EB08
:101BC8000B031C44002C26DC00F0A380644214F0B4
:101BD8000F020AD05D4B4046494603EBC203D3E9E6
:101BE8000023FEF793FD80468946241100F091807A
:101BF8001F2C40F3B38022234FF000084FF0000958
:101C0800CAF8003053E6C5F12503A6EB0B02934250
:101C180019DA2C1B144414F00F030AD04B4942461E
:101C280001EBC3014B46D1E90001FEF745FC8046B4
:101C3800894634F00F046CD0B4F59A7F41DD222335
:101C4800CAF8003071E7C5F10F05404C42464B46D3
:101C580004EBC501D1E90001FEF72EFC0F9B5D1BCB
:101C680004EBC504D4E900238FE71633A6DBABEBFE
:101C78000602364B4046494603EBC203D3E900232C
:101C8800FEF744FD59E7002306932223DFF8B490BA
:101C98004FF00008CAF800301899504619F0D8FCDF
:101CA8000699504619F0D4FC0599504619F0D0FC15
:101CB8001099504619F0CCFC0799504619F0C8FC09
:101CC800F5E50023241140464946214F0493012C91
:101CD80022DC0BB180468946049BA9F154791C4942
:101CE800424601EBC3014B46D1E90001FEF7E4FB94
:101CF800144B0A4680460B4016498B429FD8A1F5E3
:101D080080118B4286BFDFF850904FF0FF3802F108
:101D18005479002304934CE0E20704D5D7E9002363
:101D2800FEF7CAFB0123049A6410083701320492B3
:101D3800CDE700BF53CD030074CB03004BCD0300A8
:101D4800B7CD03000000F07F1CCC0300A86B030094
:101D5800806B03000000A07CFFFFEF7F14F01003EE
:101D680040464946AB4F18BF6A2304930023E20755
:101D780004D5D7E90023FEF79FFB0123641007F180
:101D88000807F4D10BB180468946049B43B1C9F3D7
:101D98000A524946C2F16B03002B50DC6A230493B4
:101DA8000022002340464946FEF7EEFD00287FF456
:101DB80022AF069B5046059A00932B460A9919F0C4
:101DC800B1FC109000283FF43AAF0F9BABEB060B29
:101DD800002BB4BF5B46002311930F9B23EAE373E8
:101DE8001493002307930593109B5046596819F0E4
:101DF800EFFB069000283FF448AF109B0C301A699F
:101E080003F10C010232920023F0F6FB1AAB4246B2
:101E18005046019319AB00934B46CDE90A8919F056
:101E280051FF189000283FF430AF0121504619F0B7
:101E3800C3FC03460590D0B90023059325E71F2B63
:101E48000EDD342B4FF00008DBBF4FF0FF33C2F13B
:101E58004B024FF05C799340D8BF03EA01099DE734
:101E68004FF0FF3202FA03F303EA080896E7199CD9
:101E78001A9A002CA9BF119B149BE718149EB8BF8F
:101E88001E1B049BB8BF119FE41A634B1444C2F194
:101E98003602013C9C4280F2B0801B1B01251F2B9F
:101EA800A2EB0302CDBFC4F17F449D40002404F59A
:101EB8007F04C2BF04F57B44E23405FA04F407EB5F
:101EC800020B049B16445F451E443B46A8BF5B4675
:101ED800B342A8BF3346002BC2BFABEB030BF61AC5
:101EE800FF1A119B002B16DD1A460599504619F06A
:101EF80023FD059000289FD00146189A504619F0F6
:101F080071FC0D9000283FF4C0AE1899504619F0A6
:101F18009FFB0D9B1893BBF1000F71DC0F9B002BEF
:101F280008DD149A5046069919F006FD0690002817
:101F38003FF4A9AE002E08DD32460699504619F046
:101F480055FD069000283FF49EAE002F08DD3A4666
:101F58000599504619F04AFD059000283FF495AEC2
:101F6800069A5046189919F0ADFD079000283FF4DD
:101F78008CAEC36805990D930023C36024F00EF856
:101F880000284BDA0D9B53EA080340F0BC80C9F3E4
:101F98001303002B40F0B78029F000431B0D1B05ED
:101FA800B3F1D66F40F2AF80079B5B6923B9079BFB
:101FB8001B69012B40F3A78001220799504619F0AD
:101FC80015FD0599079023F0E9FF002840F39B8051
:101FD80029F00043049A1B0D1B05002A79D0B3F1A0
:101FE800D66F6DD8B3F15C7F46D84FF000084FF03C
:101FF80000092223CAF800304EE6002401255EE7D6
:102008005A461899504619F0F1FC1890002885D1C5
:102018003BE600BF586B030002FCFFFFCB4640F0D5
:10202800A3800D9AC9F31303002A40D0964A93421D
:1020380058D1049B42467BB9B8F1FF3F40F08980F4
:10204800924B99453FF421AE914BDDF8108009EA97
:10205800030303F580191FE68D4B09EA0303B3F167
:10206800D46F16D918F101011BD1884A91453FF464
:102078000CAE03F580198046864B4046494600223F
:10208800FEF71AFA0B468046894603437FF404AEEE
:10209800AFE71E0D4FF0FF31C6F16B06B140884522
:1020A800E7D0002C5ED014EA0B0FE5D01EE0002B21
:1020B8004AD1B8F1000F8BD064B314EA0B0F2BE0B0
:1020C800A3F580134FF0FF386FEA13596FEA0959E7
:1020D800D2E7A3F580134FF0FF386FEA13596FEA80
:1020E8000959D9E59CB114EA090F0CD0049A404665
:1020F800494623F082FC02460B46DDE90A01FEF759
:1021080025F880468946049B002BB5D1C4E515EA1D
:10211800080FEAE718EA050FF5D0049A4046494641
:1021280023F06BFC02460B46DDE90A01FEF70CF8CA
:102138000022002304460D46FEF726FC00287FF403
:1021480054AFA046A946DEE7002CB6D115EA080F21
:10215800E2E724B114EA090F3FF49EADC6E718EA96
:10216800050FF9E72A42A0E70599079823F031FF00
:1021780000224FF0804304460D46FEF719FC002864
:102188006DD00D9B002B78D1B8F1000F56D1C9F353
:102198001303002B59D100223F4B20462946FEF756
:1021A800FDFB002858D12046294600223B4BFEF76C
:1021B80083F904460D4605F1004308940993344B0E
:1021C800334A0BEA03030BEA02021593344B9A4293
:1021D800DDE9086740F09E80ABF1547940464946F6
:1021E80019F006FDDDE90823FEF766F942464B467D
:1021F800FDF7ACFF0B46264980462A4A1940914212
:1022080054D90B9A214B9A4203D10A9B01333FF4CC
:102218003CADDFF878904FF0FF381899504619F028
:1022280017FA0699504619F013FA0599504619F00D
:102238000FFA0799504619F00BFAD5E5B8F1010FD6
:1022480003D1B9F1000F3FF4D0AE174C0023124D63
:10225800CDE908340024B2E70024104DABE70F4B5A
:10226800204629460022FEF727F90D9B04460D4615
:10227800002BA0D0CDE90845A1E7074C002325464F
:10228800CDE908341C469AE7FFFF0F00FFFFEF7FF8
:102298000000F07F000050390000F03F0000E03FF0
:1022A8000000E07FFFFF9F7C0000F0BF03F154793E
:1022B800049B4E46002BB0D129F00043159A1B0D04
:1022C8001B059A42A9D120462946FEF723FFC9F3E8
:1022D8001306FEF7C3F80B4602462946204646EA8F
:1022E8000806FDF731FF0D9B04460D461E434AD0F4
:1022F8002DA3D3E90023FEF751FB00287FF4CCACD3
:10230800204629462AA3D3E90023FEF765FB0028C7
:1023180083D0C1E4049B13B3159BB3F1D46F1ED8CB
:102328002046294624A3D3E90023FEF741FB90B1B8
:1023380029462046FEF7CEFE012838BF0120FEF7C9
:1023480041F80D9B04460D46D3B901F100431290A4
:102358001393DDE9126707F1D663159A9F1ADDE931
:102368000A0119F045FC02460B4630463946FEF78D
:10237800A3F8DDE90A23FDF7E9FE8046894697E7D9
:10238800CDE91245E5E70EA3D3E90023FEF706FBE6
:10239800BDE7652A3FF448AB452A3FF445AB012326
:1023A800FFF77EBBAFF300809535A094FFFFDF3FBA
:1023B80035E5AF350000E03F0000C0FFFFFFDF411B
:1023C8009535A094FFFFCF3F2DE9F04F144697B005
:1023D8001D46476A8346239ECDE904457FB91020F0
:1023E80017F03AFA0246CBF8240020B9A24BEA21AA
:1023F800A2481AF08DFAC0E901770760C760DBF8D8
:102408002430196859B15A680123584693404A60E4
:102418008B6019F01DF9DBF8243000221A602B1E9E
:10242800B7BF23F00043002301220593A8BF336000
:10243800059F934BB8BF3260BB4319D142F20F736B
:10244800229A1360C7F31303234300F0E085249B0B
:1024580053B98C4B21E08C4B08930833249A1360B2
:10246800089817B0BDE8F08F864B08930333F5E75B
:10247800DDE90423CDE90C23DDE90C01002200236A
:10248800FEF782FA804650B10123229A1360249BFA
:1024980013B17E4B249A13607D4B0893E0E714AB8D
:1024A800C7F30A565846019315AB0093DDE90C2390
:1024B80019F008FC0390002E78D00D9BA6F2FF3689
:1024C800CDF84C80C3F3130343F07F53DDE90C01CF
:1024D80043F44013194600226E4BFDF735FE60A306
:1024E800D3E90023FDF7E8FF5FA3D3E90023FDF755
:1024F8002DFE04460D463046FDF774FF5CA3D3E974
:102508000023FDF7D9FF02460B4620462946FDF772
:102518001DFE04460D46FEF77FFA002207460023FB
:1025280020462946FEF73AFA40B13846FDF75AFFE9
:1025380022462B46FEF728FA00B9013F162F54D839
:10254800554B03EBC703DDE90C01D3E90023FEF784
:1025580025FA00284BD0013F00231293149B9B1BA4
:102568005A1E4CBFC3F1010300230A9245BF0693CC
:10257800002306930A93002F3BDB0A9B0F973B44EB
:102588000A9300230B93209B092B00F28980052BCB
:10259800C5BF043B002401242093209B023B032B4E
:1025A80000F28980DFE803F02D3A3859DDE9146339
:1025B8001E4406F23243202BC9BFC3F14003C3F1C6
:1025C80020039F4006F21243D8BF04FA03F006F135
:1025D800FF36C4BF24FA03F347EA0300FDF7F2FE0F
:1025E8000122A1F1F873139274E70123B5E7129061
:1025F800B4E7069BDB1B06937B420B9300230F93E8
:10260800C1E700230E93219B002B57DC0123994639
:102618001A46099321920CE00123F3E700230E9355
:10262800219BFB1803F1010909934B46012BB8BF05
:102638000123DBF824000021042202F114059D4245
:1026480040D94160584618F0C3FF089000283CD193
:10265800124B02464FF4D571CAE60123DFE700BFEB
:1026680061436F63A787D23FB3C8608B288AC63F90
:10267800FB799F501344D33FC1CD0300D8CD03004D
:102688000000F07FBDCD0300B4CD030080CF030070
:102698007FCF03000000F83FA86B03004CCE030077
:1026A800012400230E9420934FF0FF330022994613
:1026B80009931223AEE701230E93F5E7219B994670
:1026C8000993B6E701315200B7E7DBF82430B9F1D6
:1026D8000E0F089A1A606FD8002C6DD0002F36DDC7
:1026E80007F00F02A04BF80503EBC203D3E900344F
:1026F800CDE910344FEA271417D59C4B04F00F048A
:102708004FF00308D3E90823DDE90C01FDF7FEFFCC
:10271800CDE90401954D5CB9DDE91023DDE904013B
:10272800FDF7F4FFCDE904012BE04FF00208F1E7D3
:10273800E10709D508F10108DDE91001D5E9002311
:10274800FDF7BAFECDE9100164100835E3E700F0A3
:1027580007817C42844B854D4FF0020804F00F023C
:10276800241103EBC203DDE90C01D3E90023FDF7D3
:10277800A3FE0023CDE90401002C40F0E580002BE6
:10278800D0D1129BDDE90445002B00F04C810022DA
:10279800774B20462946FEF701F9002800F04381CF
:1027A800B9F1000F00F03F81099B002B00F3E48092
:1027B800DDE90C34CDE90434159B002B02DB0E2F28
:1027C80040F342820E9A002A40F067820B9C002553
:1027D800DDF81880B8F1000F0DD00A9B002B0ADD38
:1027E8004345069AA8BF4346D21AA8EB03080692A7
:1027F8000A9AD31A0A930B9B0BB30E9B002B00F07B
:10280800A682002C00F0A18229462246584619F0DB
:1028180093F8039A01460546584618F0E3FF0399D2
:102828000646584618F014FF0B9B1B1B0B9300F031
:1028380091820B9A3146584619F07EF8039001218F
:10284800584618F0B9FF0F9B0446002B00F084820D
:102858001A460146584619F06FF8209B0446012B8A
:1028680003DC049B002B00F07C820026236904EB28
:102878008303186923F043FBC0F120000F960A9BDD
:10288800184410F01F0000F09182C0F12003042BBF
:1028980040F38182C0F11C00069B034480440693E8
:1028A8000A9B03440A93069B002B05DD1A460399ED
:1028B800584619F09BF803900A9B002B05DD21462A
:1028C8001A46584619F092F80446129B002B00F05D
:1028D80076822146039823F061FB002880F26F82FC
:1028E80000230A220399584618F0D4FE0E9B7E1E38
:1028F8000390002B00F05C82002329460A225846E8
:1029080018F0C8FE099B0546002B03DC209B022B10
:1029180000F35E82B8F1000F05DD294642465846AD
:1029280019F064F805460F9B002B00F0D082696807
:10293800584618F04DFE0746002840F07F820D4BA0
:10294800024640F2EA2153E5E20706D508F10108FC
:10295800D5E90023FDF7B0FD0123641008350BE726
:102968004FF002080DE700BFA86B0300806B03005F
:102978000000F03F4CCE030020460022AC4B294615
:10298800FDF79AFD7E1E08F10108099CCDE90401B6
:102998004046FDF727FDDDE90423FDF78DFDA54B36
:1029A8000022FDF7D3FBA1F15073CDE9100111937B
:1029B800002C3BD10022A04BDDE90401FDF7C4FB4C
:1029C80002460B46CDE90423DDE91023FEF704F89F
:1029D800002840F05781DDE9102101F10043DDE9CD
:1029E8000401FDF7DBFF00283FF4E2AE0024254692
:1029F800219BDDF820A0DE434FF000082146584611
:102A080018F026FE002D00F0A980B8F1000F05D0BF
:102A1800A84503D04146584618F01AFE294658469C
:102A280018F016FE9AE03E464C46B1E7834B03EB9E
:102A3800C40353E90201089B1C440E9B002B4AD097
:102A480002460B4600207E49FDF760FEDDE91023B3
:102A5800FDF77AFBDDF820A0CDE91001DDE90401DE
:102A6800FDF7DAFF0546FDF7BDFC024630350B469B
:102A7800DDE90401FDF768FB0AF8015B02460B4635
:102A8800CDE90401DDE91001FDF7A6FF002865D1B5
:102A980000206C49DDE90423FDF756FB02460B468E
:102AA800DDE91001FDF798FF002840F00D81A245EF
:102AB80000F0EA8000225E4BDDE91001FDF7FCFC26
:102AC80000225B4BCDE91001DDE90401FDF7F4FCC0
:102AD800CDE90401C2E7DDE91023FDF7EDFCA046CE
:102AE800DDF820A0CDE91001DDE90401FDF794FF30
:102AF8000546FDF777FC024630350B46DDE9040153
:102B0800FDF722FB0AF8015B02460B46A245CDE918
:102B180004234FF0000223D1494BDDE91001FDF7F2
:102B280015FB02460B46DDE90401FDF755FF0028B9
:102B380040F0CA8000204249DDE91023FDF704FB7C
:102B480002460B46DDE90401FDF728FF70B1C246D5
:102B580008F1FF381AF8013C302BF8D0374655E019
:102B6800334BFDF7A9FCCDE90401BDE7DDE90C34E1
:102B7800CDE90434159B002BFFF628AE0E2F3FF746
:102B880025AE2E4B03EBC703D3E90034CDE9063459
:102B9800219B002B02DAB9F1000F64D0DDF820A0E8
:102BA800DDE90445DDE9062320462946FDF7AEFDAB
:102BB800FDF732FF0646FDF715FCDDE90623FDF7B4
:102BC8007BFC0246204606F130040B462946FDF7F9
:102BD800BBFA0AF8014B089C02460B46AAEB040410
:102BE800A14540F08280FDF7B1FA04460D46DDE9C3
:102BF8000623FDF7F1FE002865D120462946DDE9C8
:102C08000623FDF7C1FE08B1F3075CD403995846C3
:102C180018F01EFD002301378AF80030229B1F6040
:102C2800249B002B3FF41CACC3F800A018E400BFA1
:102C38000000244000001C4000001440A86B030062
:102C48000000E03F0000F03FA24B03EBC703D3E9CD
:102C58000034CDE90634219B002B9FDAB9F1000F2F
:102C68009CDC7FF4C3AE00229B4BDDE90601FDF737
:102C780023FCDDE90423FDF7A5FE044600287FF4C4
:102C8800B5AE3E462546B4E0DDE90C34CDE9043462
:102C9800159B002B01DB0E2FD6DD209A012A36DC8E
:102CA800139A82B303F233430B9CDDF81880069A1B
:102CB800012158461A4406920A9A1A440A9218F0B0
:102CC8007BFD054686E53E4653469A4613F8012D98
:102CD800392A06D1089A9A42F7D130220899013642
:102CE8000A701A7801321A7038E700227B4BFDF718
:102CF800E3FB0022002304460D46FDF745FE0028AD
:102D08003FF450AF82E7149BC3F13603CCE709F1D7
:102D1800FF340B9BA34208DBB9F1000FA3EB0404BB
:102D28000EDBDDF818804B46C1E70B9B0F9AE31AC0
:102D38000B94DDF8188000241A444B460F92B6E72E
:102D4800069BA3EB09080023B1E7039E71E50B9AE4
:102D5800039970E5039672E5209B012B17DC049B11
:102D6800ABB9059BC3F313039BB9059B23F000463E
:102D7800360D360536B1069B0126013306930A9BAC
:102D880001330A930F9B002B7FF470AD0F9601203F
:102D980075E50026F6E73FF486AD1C33069A1A441B
:102DA800984406920A9A1A440A927CE50346F4E784
:102DB800099B002B2BDC209B022B09DC27E0B9F1B7
:102DC800000F1DDC209B022B1ADD3E46CDF8249017
:102DD800099B002B7FF40CAE21460522584618F0BB
:102DE80059FC01460446039823F0D8F800287FF7D9
:102DF800FFADDDF820A0312301360AF8013BFBE5E1
:102E08000E9B3E46CDF82490002B7FF483AD089F9F
:102E18002146039822F071FE089B00F13009099AB7
:102E280007F8019BFB1A9A4240F3CB8000230A2241
:102E38000399584618F02EFC0390E9E72A6905F132
:102E48000C010C300232920022F0D6FB01223946E6
:102E5800584618F0CBFD089BA846054603F1010A21
:102E6800DDE9082313440A93049B03F001030B9341
:102E78000AF1FF3321460398069322F03EFE4146AD
:102E8800099000F13009039823F088F82A46214672
:102E98000746584618F016FEC268014602B358465F
:102EA80018F0D6FB002F3ADA01220399584618F099
:102EB8009DFD2146039023F071F8002803DC29D1F9
:102EC80019F0010F26D0B9F1390F1DD132E028468B
:102ED800C1E700BFA86B03000000144000002440B5
:102EE8000E90039823F05AF80E990C90584618F053
:102EF800AFFB0C9A5ABB209B53B90B9B43B9B9F152
:102F0800390F17D0002F05DD099B03F1310901E0C6
:102F1800002F2ADADDF818A00AF8019B6EE5209B3D
:102F28003B4304D1049B03F00103002BBCD0B9F14F
:102F3800390F36D1069F392307F8013BBA46013FBE
:102F48001AF8013C392B5AD001333B7056E5002F53
:102F580006DB209B3B4306D1049B03F0010313B916
:102F6800002AA1DCD6E7002AE1DC0A9B57460AF8CA
:102F7800019C53452ED000230A220399584618F085
:102F880089FBA84503904FF000034FF00A02414621
:102F980058460BD118F07EFB804605460AF1010A17
:102FA80066E7DDF818A009F10109B5E718F072FB2A
:102FB8002946804600230A22584618F06BFB05462E
:102FC800ECE7099B4FF00008002BCCBF1F460127F8
:102FD800089B1F4401220399584618F007FD214613
:102FE800039022F0DBFF0028A8DC02D119F0010FC2
:102FF800A4D1BA4617F8013D302BFAD0FEE4089B5D
:10300800BB429BD13123089A01361370F6E4249B06
:10301800002B7FF420AA014BFFF73FBAB4CD030081
:1030280070B582B00C4615461E4601AA0C491CF024
:1030380017FA60B1019B6BB9012C0ED10122094925
:103048003046A847002800DB002002B070BD6FF0B2
:103058000100FAE76FF00100F7E76FF01500F4E7F9
:103068009C6C0300F44D01202DE9F0438DB004AFB2
:1030780006F024F99C4805F0A7FF1CF0ECF94FF482
:1030880000319A4819F046FD00F098FB00F06EFAFE
:10309800DFE000F0FDFB964901220A70954805F033
:1030A80017FFFDE04FF4E17019F05CFD00F09AFCA9
:1030B8000134022CF6DD01218F4B18681FF0D8FB74
:1030C8008E4B00221A6000248D4B1C7001221521A2
:1030D8008C4819F03AFD4FF4E17019F043FD0FE008
:1030E80000F022F90146DFF81492D9F80000FDF744
:1030F80011FDC9F800004FF4E17019F033FD0134F7
:10310800022CEDDD002215217E4819F01EFD7B4CB6
:103118007D492068FDF7BAFE2060FEF775F9DFF8F3
:10312800E09189F800002068FDF76EF902460B4629
:10313800764817F019FA99F800C06C4688B004ABC5
:1031480013F1100211D00C2152B10846042903DDF5
:10315800DFF8BCE1C3F814E0082809DDC3F818C09B
:103168000B2940F3A4800C2104E06FF00041EBE749
:103178006FF01B013AB10320387100207871B871E3
:10318800F871786818616FF300066FF341066FF302
:1031980082066FF3C506032363F38816C1F30A0397
:1031A80063F353266FF31F5600233146594805F041
:1031B800E7F8A546524B1B780293504B1868FDF769
:1031C80023F9CDE90001544A0E21544817F0FCF9BF
:1031D8006C4600233B7102237B7188B004A911F16E
:1031E800100267D04FF00E0C22B1BCF1040F01DDC4
:1031F8004B4B4B6100233B7002237B70002A5CD150
:10320800BCF10D0F6DDD0E2342B103203871002093
:103218007871B8710120F871786808616FF3000857
:103228006FF341086FF382086FF3C508032161F358
:103238008818C3F30A0363F353286FF31F58002356
:103248004146344805F09CF8A54602F0D7F91FF02E
:103258008AF900F03DFA334BFB6102233B710023EE
:103268007B71BB71FB717A68BA6163F3000563F324
:10327800410563F3820563F3C505032262F38815EC
:10328800082262F3532563F31F5507F118022946F4
:10329800204805F075F8164B1B78002B3FF4F9AE63
:1032A8000021154B18681FF0E3FA002401E76FF0BE
:1032B8001B015FE76FF0004C96E7BCF1080F01DDDA
:1032C800164B8B6101F11C03002007E000F1200E72
:1032D800BE441EF820EC03F801EB01300128F5D9B3
:1032E8008EE76FF01B038FE7B0C60020F06C030079
:1032F800F44D0120906C030038D7002020D700201F
:10330800F54D01204C66030000004040A46C03000A
:10331800BC6C030038690300CC6C030010D7002094
:10332800DC6C0300706C0300F0B589B000AF824913
:1033380001234B600A230B7400234B747F48836876
:103348005B6898477E4B186000281BDB7D4BB3F900
:1033580000007D4B18606C4688B06B4613F1100274
:103368004BD00C2142B18C46042901DD774D5D61BB
:10337800BCF1080F44DD98610B2940F382804FF0BF
:103388000C0C3FE088B06B4613F110020DD00C21F5
:103398003AB10C46042901DD6D4D5D61082C07DD4D
:1033A80098610B2926DD0C2404E06FF00041EFE75B
:1033B8006FF01B043AB10321397100217971B97199
:1033C800F9717868186100216FF300016FF341010A
:1033D8006FF382016FF3C501022363F38811C4F30D
:1033E8000A0363F353216FF31F510023594804F074
:1033F800C7FF9BE06FF01B04DCE76FF00041B1E70B
:103408006FF01B0C3AB10321397100217971B97140
:10341800F9717868186100216FF300016FF34101B9
:103428006FF382016FF3C501032363F38811CCF3B3
:103438000A0363F353216FF31F510023454804F037
:103448009FFFA5464049444819F0C2FB3C4B186011
:10345800002819DB3C4B1D686C4688B06B4613F19D
:10346800100232D00C213AB10846042901DD3B4E46
:103478005E6108282CDD9D610B295ADD4FF00C0C8C
:1034880028E06FF01B0CBDE7354BFB6102233B7155
:1034980000237B71BB71FB717A68BA61194663F3CB
:1034A800000163F3410163F3820163F3C501032261
:1034B80062F38811082262F3532163F31F5107F165
:1034C8001802244804F05CFF24E06FF00041CAE7CA
:1034D8006FF01B0C3AB10321397100217971B97170
:1034E800F9717868186100216FF300016FF34101E9
:1034F8006FF382016FF3C501032363F38811CCF3E3
:103508000A0C6CF353216FF31F510023114804F088
:1035180037FFA5460C4B1868FDF7B0FB1149FDF7BE
:10352800B5FC0146FDF7F6FA0F4B18602437BD4687
:10353800F0BD6FF01B0CCDE7C8C6002094660300F1
:103548002CD70020E84D012028D70020206D03004B
:103558000C6D030020690300B46D0300546D030073
:10356800346D030000007A4424D70020F0B583B0FE
:1035780000AF514821F0FFF8002858D14E4B196888
:103588006C4600233B7102237B7188B0EC461CF12A
:10359800100213D00E2022B1042802DD474BCCF8CC
:1035A800143000233B7002237B70AAB1082801DD88
:1035B800CCF818100CF11C0300210BE06FF0004050
:1035C800E9E701F1080505EB070E1EF808EC03F81A
:1035D80001EB01310129F4D90D2825DD0E234AB16B
:1035E8000321397100217971B9710121F971786864
:1035F800CCF8100000216FF300016FF341016FF365
:1036080082016FF3C501012060F38811C3F30A0337
:1036180063F353216FF31F510023294804F0B0FED0
:10362800A5460C37BD46F0BD6FF01B03D7E725480C
:1036380019F0AEFA244B18600028F2DA6D4688B00B
:103648006B4613F1100231D010215AB10C460429EF
:1036580001DD1E4E5E61082C01DD00269E610C2CEA
:1036680000DDD8610F2924DD10243AB10421397115
:1036780000217971B971F9717868186100216FF3C7
:1036880000016FF341016FF382016FF3C50101235C
:1036980063F38811C4F30A0464F353216FF31F51D1
:1036A8000023074804F06CFEAD46BAE76FF000410E
:1036B800CBE76FF01B04D8E7946603006C6D03003A
:1036C80020690300B46D03002CD70020906D03001F
:1036D80090B583B000AF354821F04DF8002857D198
:1036E800324B19686C4600233B7102237B7188B00A
:1036F800EC461CF1100213D00E2022B1042802DD82
:103708002B4BCCF8143000233B7002237B70A2B102
:10371800082801DDCCF818100CF11C0300210AE080
:103728006FF00040E9E701F1080EBE441EF808EC0E
:1037380003F801EB01310129F5D90D2825DD0E2308
:103748004AB10321397100217971B9710121F971E7
:103758007868CCF8100000216FF300016FF3410185
:103768006FF382016FF3C501012060F38811C3F381
:103778000A0363F353216FF31F5100230D4804F02C
:10378800FFFDA5460C37BD4690BD6FF01B03D7E77C
:10379800064C0021204605F009F9074B186819F076
:1037A80035FA0121204605F001F9EBE77C660300B4
:1037B800D06D030058690300DCC6002090B583B0C3
:1037C80000AF2F4B2F4A1360196801233B71032365
:1037D8007B718AB0EC461CF1100219D0122052B14C
:1037E8000346042802DD284CCCF81440082B02DDDF
:1037F800234BCCF8183001233B7003237B70AAB10C
:103808000C2801DDCCF81C100CF1200300210BE082
:103818006FF00040E3E701F1080404EB070E1EF81F
:1038280008EC03F801EB01310129F4D9112824DD52
:1038380012234AB10421397100217971B97101212A
:10384800F9717868CCF8100000216FF300016FF36C
:1038580041016FF382016FF3C501032060F3881102
:10386800C3F30A0363F353216FF31F51002307487F
:1038780004F086FD0C37BD4690BD6FF01B03D8E7FA
:10388800C466030038D70020F46D030060690300A4
:10389800F0B591B000AF4C4D29784C4B18681EF02C
:1038A800CCFF4B4B7B6202233B7300237B73BB73C0
:1038B800FB73FA683A62194663F3000163F3410146
:1038C80063F3820163F3C501032262F388110822BE
:1038D80062F3532163F31F5107F120023D4804F0BE
:1038E8004FFD2D6828E06FF000412EE06FF01B01BE
:1038F8003AB10320387300207873B873F873F86806
:1039080018616FF300046FF341046FF382046FF3DF
:10391800C504032363F38814C1F30A0363F3532430
:103928006FF31F54002321462A4804F029FDB546A9
:10393800FA2019F081F9013D002D18DB6E4688B098
:103948006B4613F11002CED00C214AB10846042967
:1039580003DDDFF884C0C3F814C00828C6DD9D6104
:103968000B2901DD0C21C3E76FF01B01C0E7164BE3
:103978001B781A4A1268154909683846FDF72CFE63
:10398800174BFB6302233B7300237B73BB73FB73EF
:10399800FA68BA63194663F3000163F3410163F3FC
:1039A800820163F3C501032262F38811082262F3DE
:1039B800532163F31F5107F13802064804F0E0FC75
:1039C8004437BD46F0BD00BFE0C6002038D7002010
:1039D800106E0300606903002C6E0300E4C600202B
:1039E800346E0300F0B583B000AF4E4B186883689F
:1039F800DB683A219847002845D004466D4688B0D0
:103A08006B4613F1100238D00C213AB1084604294C
:103A180001DD454E5E61082800DD9C610B292FDD24
:103A28000C243AB10321397100217971B971F97106
:103A38007868186100216FF300016FF341016FF39B
:103A480082016FF3C501012363F38811C4F30A04EB
:103A580064F353216FF31F510023344804F090FCA2
:103A6800AD46334A1368526813441BB2314A138077
:103A7800002B52DB0C37BD46F0BD6FF00041C4E7A8
:103A88006FF01B04CDE7274B186883681B69284C27
:103A980022463B219847266865686C4688B06B4685
:103AA80013F1100233D0102162B10846042903DD56
:103AB800DFF884C0C3F814C0082800DD9E610C2814
:103AC80000DDDD610F2925DD4FF0100C3AB104212E
:103AD800397100217971B971F9717868186100211B
:103AE8006FF300016FF341016FF382016FF3C501BA
:103AF800032363F38811CCF30A0C6CF353216FF39F
:103B08001F510023094804F03BFCA546A9E76FF0C4
:103B18000041C9E76FF01B0CD8E7134600221A8052
:103B2800A8E700BF38D700204C6E03006069030087
:103B380030D70020EA4D0120686E030008B51DF05B
:103B4800D2FD00B908BD0146024819F092FA0020DA
:103B5800F8E700BF886E0300F0B595B000AFFA1D16
:103B680000212A200FF0EAFE00284BD1FB79002B18
:103B780000F0CD8040F267539C4A00212A200FF0C4
:103B88008BFE044600287CD0994BFB6102233B70D6
:103B980000247C70BC70FC703B68BB61214664F3F8
:103BA800000164F3410164F3820164F3C501012358
:103BB80063F38811082363F3532164F31F512346E9
:103BC80007F118028B4804F0DBFB21462A200FF08E
:103BD80095FE0446002800F09A806D4688B06B4632
:103BE80013F110026ED00C213AB10846042901DD08
:103BF800814E5E61082868DD9C610B2940F3B58021
:103C08000C2464E004466D4688B06B4613F110023C
:103C18000ED00C213AB10846042901DD774E5E61C9
:103C2800082808DD9C610B2928DD4FF00C0C04E006
:103C38006FF00041EEE76FF01B0C3AB103213970C9
:103C480000217970B970F9703868186100216FF334
:103C580000016FF341016FF382016FF3C501012386
:103C680063F38811CCF30A0363F353216FF31F51F5
:103C78000023604804F084FBAD4672E06FF01B0C33
:103C8800DBE75F4B7B6302233B7000237B70BB70D9
:103C9800FB703A683A63194663F3000163F3410124
:103CA80063F3820163F3C501032262F388110822DA
:103CB80062F3532163F31F5107F130024D4804F0BA
:103CC8005FFB4EE06FF000418EE76FF01B043AB1E6
:103CD8000321397000217970B970F970386818615A
:103CE80000216FF300016FF341016FF382016FF35D
:103CF800C501012363F38811C4F30A0464F3532153
:103D08006FF31F5100233B4804F03AFBAD463D4B8F
:103D1800FB6402233B7000247C70BC70FC703B6821
:103D2800BB64214664F3000164F3410164F382013A
:103D380064F3C501032363F38811082363F3532154
:103D480064F31F51234607F148022A4804F018FB80
:103D580040F26753254A21462A200FF071FD044698
:103D680030B920465437BD46F0BD6FF01B04AEE7AE
:103D78006E4688B06B4613F110020DD00C213AB193
:103D88000846042901DD204D5D61082807DD9C6196
:103D98000B2927DD0C2504E06FF00041EFE76FF0F9
:103DA8001B053AB10321397000217970B970F97097
:103DB8003868186100216FF300016FF341016FF358
:103DC80082016FF3C501012363F38811C5F30A0368
:103DD80063F353216FF31F510023064804F0D0FA10
:103DE800B546BEE76FF01B05DBE700BFB8910300DF
:103DF800F86E030030690300106F0300B86E03000B
:103E0800E46E0300406F03005C6F03002DE9F0418E
:103E180086B000AF5C4B93E8070007F1180606E987
:103E28000700DB683B811B0CBB72002626E06FF0A5
:103E3800004131E0132946DD14213AB105203871DB
:103E480000207871B871F871786818616FF3000410
:103E58006FF341046FF382046FF3C504032363F324
:103E68008814C1F30A0363F353246FF31F54002328
:103E78002146464804F084FAC5460136042E25DC5E
:103E8800F1B242F6CD100FF039FDE8468AB06B4624
:103E980013F11002CBD01421002ACBD008460429F4
:103EA80003DDDFF8ECC0C3F814C0082803DD42F6D0
:103EB800CD1CC3F818C00C2800DDDE611028B9DD60
:103EC80000201862B6E76FF01B01B6E7002426460B
:103ED80027E06FF0004142E00B294DDD0C213AB19B
:103EE8000320387100207871B871F871786818610A
:103EF8006FF300056FF341056FF382056FF3C50596
:103F0800032363F38815C1F30A0161F353256FF3A3
:103F18001F55002329461D4804F032FAC5460134CE
:103F2800E4B2022C2BD807F1180303EB840353F8EF
:103F38000C8C4046FDF75DFA0346424604F1180131
:103F4800394411F8101C42F6CD100FF079FC0643E5
:103F5800E84688B06B4613F11002BAD00C21002A4B
:103F6800BAD00846042903DDDFF828C0C3F814C016
:103F78000828B1DD9E61AFE76FF01B01AFE730465F
:103F88001837BD46BDE8F081006B030030690300B7
:103F98001C7003004870030010B594B00021109104
:103FA800119112911391242207A821F045FB144C7A
:103FB80020460FF0F9FC4FF47A720023D4E900018F
:103FC800FDF700F8CDE9100107A910A815F056FB78
:103FD8000C4C079B0493089B0393099B02930A9B31
:103FE80001930B9B013300930C9B03F26C73064AFD
:103FF8001921204616F0E8FA204614B010BD00BF7B
:10400800A0CD0020ECC600206C70030030B587B04E
:10401800044608461D468DF808200091FDF7E9F989
:10402800019003950A9B04930B4A138801339BB2B2
:104038001380ADF814309DF816306FF300038DF837
:104048001630DBB26FF341038DF81630694620460F
:104058001CF05FFB07B030BDEC4D012030B589B0D6
:104068000F4D686B0290FDF7C4F9039001248DF899
:104078001040286B0590FDF7BCF906908DF81C40A0
:1040880002AB00930223ADF8043041F22E63ADF881
:104098000630694603481CF0A5FB09B030BD00BFD7
:1040A800EC1F012054D7002070B51A4D0D44B1F50E
:1040B800805F29D80646174C16E010F10B0F22D165
:1040C800154818F0D6FF3C22012114481BF06BF963
:1040D80000281CDD114BB3F9063013F0010F03D192
:1040E8006FF004000FE00444AC420BD22A1B2146B7
:1040F80030461CF029FC0028DFDB0028F3D16FF0E4
:10410800040000E0002070BD6FF07900FBE76FF05D
:104118000400F8E7ECEF0020907003002420012051
:1041280030B59BB05022002105A821F085FA012363
:10413800079308930A24002C0DDD322018F092FD15
:1041480019AB05AA00211848006A1BF021F805469A
:1041580008B1013CEFE77DB9199B3BB159690829C2
:104168000FD018230822114818F083FF19981BF064
:1041780013F828461BB030BD29460D4818F079FFC2
:10418800F7E79B695B680B494B60012008804BF29D
:1041980022334B80102301AA04311BF0BCFC01A977
:1041A800054818F066FFE1E7EC1F012000710300E5
:1041B800B47003002C200120DC7003002DE9F041CD
:1041C80004461CF068FAF023A4F880304FF4FA6033
:1041D80018F048FDFFF7A4FF00282FD18046194B9F
:1041E800A365194BE366194D686A2065FDF701F967
:1041F8006065A86A164F3860FDF7FBF87860E86AD2
:10420800144E3060FDF7F5F87060E7652666042304
:1042180084F88230104B23674FF4805363670F4A4A
:10422800A267E367012384F82430E3620023236351
:1042380063632B6A63644046BDE8F0814FF0FF3842
:10424800F9E700BF2C2001206D530100EC1F01206D
:104258004CD7002044D70020EC0F0120ECFF0020B1
:1042680090F824303BB9826A054B1A60044B01224E
:104278009A8000207047826A014B1A60F6E700BFF7
:104288002420012008B51E22012125481BF08BF8A7
:10429800002814DB23481CF026FB002816DD204BE1
:1042A800B3F9063013F0010F27D11D4BB3F90630CF
:1042B80013F0080F2BD113F0200F2CD108BD1BF0E1
:1042C800D1FA0168184818F0D4FEF7E7174B1B78A5
:1042D800002BE4D0164818F0CCFE12481CF0D7FA90
:1042E800014610B110F10B0F03D1124818F0C1FEAE
:1042F800D5E7114818F0BDFEE0E70A481CF00CFBB2
:1043080001460028D1D00D4818F0B3FED6E70C4876
:1043180018F0AFFED2E70B4818F0ABFECEE700BFAF
:104328002420012054D7002024710300F74D0120D8
:104338003471030064710300487103007C71030049
:1043480098710300A471030010B5144B1A6A14483D
:1043580082655A6A02659B6AC365FFF72FFF0446A8
:1043680008B1204610BD0E481CF0AFF9044658B9F4
:104378000C4818F07EFE0A48FFF772FF044640B961
:10438800094818F076FEECE70146084818F071FE77
:10439800E7E70146064818F06CFEE2E7EC1F01204B
:1043A80054D70020C8710300F0710300B0710300F6
:1043B800DC71030030B585B004462A23029301233B
:1043C80003930423009303AB05224FF48D711BF074
:1043D8000CF868B90423009302AB01224FF48D71E5
:1043E80020461BF002F8054650B9284605B030BDF6
:1043F80005461BF037FA0168054818F03AFEF4E75D
:104408001BF030FA0168034818F033FEEDE700BFEF
:10441800886F0300B46F030070B5A4B00C4616464D
:10442800502200210FA821F007F94FF48063109360
:1044380001231293564818F01CFE23AB0FAA5549C6
:1044480055481AF0A5FE002878D1239B1889996948
:1044580004312E2303AA1BF05EFB239B188906F068
:10446800A1FD024603A94D4818F003FE239B986856
:104478004FF48172012104F0DBFB0546B0F1FF3FE8
:1044880064D0FFF797FF002871D1239B9B695B8855
:104498001A0242EA132292B23F49414818F0E9FD54
:1044A800239B99695A6928461AF0AFFE002851D112
:1044B8003C4818F0DEFD384B0193009623463A4AF3
:1044C8004FF4FA71394816F07FF806460024374948
:1044D8002144321B00230193009328461AF0C4FE9E
:1044E80000283EDB0444A642F1D800243049214488
:1044F800C4F5805200230193009328461AF01BFF4D
:1045080000283EDB04440028F0D12A49284821F03D
:104518005EFA1EF068FE28491EF07EFE04692846F1
:104528001AF04EFE54B32046FCF763FF03462118E9
:10453800224A1068E05013790B711FE01BF092F9C2
:1045480001681F4818F095FD002417E01D4818F071
:1045580090FD0CE01BF086F901681B4818F089FDF6
:1045680005E01BF07FF90168184818F082FD2398D0
:104578001AF012FE002010F009FE0024204624B094
:1045880070BD1BF06FF90168114818F072FDEEE775
:104598000072030018720300DC6F03003C72030012
:1045A80074720300A8720300B4720300ECD70020F1
:1045B800ECDF00206C730300707303007873030052
:1045C8001C720300507203008C7203003C730300DA
:1045D800547303002DE9F043ADF5637D81468846A9
:1045E800039250220021CDA821F026F80123CF9371
:1045F800D093002405E0594903A821F0E3F90746C0
:104608000134022CF7DDE1ABCDAA002138461AF0BF
:10461800BFFD4FF47A7018F025FBE19B9B694BF6C0
:1046280001325A804FF481720121084604F000FBE0
:104638000546B0F1FF3F0DD0FFF7BCFE70B1E19821
:104648001AF0AAFD28461AF0BBFD30460DF5637D29
:10465800BDE8F083424818F00CFDF0E739464148C0
:1046680018F007FDE19B99695A6928461AF0CDFDB3
:1046780000285ED13C4818F0FCFC05AC3B4A2346B8
:104688001068516803C312891A8040F2163200215B
:104698000DF11E0020F0D0FF4FF448724946204625
:1046A80021F032F94FF448723149204621F02CF9B3
:1046B8004FF448724146204621F026F94FF44872DB
:1046C8002C49204621F020F92046FCF792FE01945F
:1046D80000903B46284A4FF48061284815F074FF43
:1046E80007460024254921443A1B002301930093DF
:1046F80028461AF0B9FD031E22DB1C44A742F1D854
:1047080000241F492144C4F58052002301930093DB
:1047180028461AF010FE002819DB0444B4F5806F0F
:1047280001D80028EDD11749154821F050F906465F
:1047380085E71BF097F80168134818F09AFC7EE7A4
:104748001BF090F80168114818F093FC77E71BF00C
:1047580089F801680E4818F08CFC70E78073030034
:1047680084730300A4730300A8720300C8740300D1
:10477800B8730300C873030038740300ECD7002033
:10478800ECDF00206C7303008C7203003C730300A1
:104798005473030038B51EF026FD6B491EF041FD29
:1047A80004466A491EF038FD4369694D6B61694BDF
:1047B8001968694818F05DFC6B6943B1013B052B2A
:1047C80000F2AF80DFE803F065717D8995A1634849
:1047D80018F04FFC624920461EF01EFD03692B604D
:1047E800604920461EF018FD03696B605E4920464B
:1047F8001EF012FD4369AB605C4920461EF00CFDBB
:104808004369EB605A4920461EF006FD43692B6157
:10481800584920461EF005FD57491EF0FDFC436926
:10482800AB61564920461EF0FCFC044654491EF074
:10483800F3FC0369EB61534920461EF0EDFC036964
:104848006B62514920461EF0E7FC03692B624F4911
:1048580020461EF0E1FC0369AB624D4920461EF07C
:10486800DBFC0369EB624B4920461EF0D5FC03696B
:104878006B63494920461EF0CFFC03692B63474808
:1048880018F0F7FB324B1B6A1B78002B5AD001201B
:1048980038BD434B1B78002BF4D02E4B1A68414B84
:1048A8001968414818F0E5FBECE73D4B1B78002BF5
:1048B800E8D0284B1A683B4B19683C4818F0D9FBDC
:1048C800E0E7374B1B78002BDCD0224B1A68354BBE
:1048D8001968374818F0CDFBD4E7314B1B78002B0B
:1048E800D0D01C4B1A682F4B1968324818F0C1FBFE
:1048F800C8E72B4B1B78002BC4D0164B1A68294BE2
:1049080019682D4818F0B5FBBCE7254B1B78002B20
:10491800B8D0104B1A68234B1968284818F0A9FB1F
:10492800B0E71F4B1B78002BACD00A4D1D4C2A68F2
:104938002168234818F09DFB2A682168214818F04F
:1049480098FB9FE70020A3E7E0C40300D4740300AA
:10495800EC1F0120DCD70020D8740300F07403009A
:10496800F87403000075030004750300087503005C
:104978000C7503001075030014750300A8A103004B
:1049880084AC030098A20300187503001C7503008B
:104998002075030024750300287503002C75030097
:1049A8008CCA0020E8D700204C75030090750300DE
:1049B800CC75030008760300447603007C76030078
:1049C800B8760300FC7603002DE9F041DDF8188085
:1049D800214B1B780BB9BDE8F08104460D461F48F2
:1049E80018F047FBC82018F03DF9424621461C48FC
:1049F800FFF712FD074658B31A4B1B78CBB90026B0
:104A0800092E1CDCC82018F02DF93A462946204604
:104A1800FFF7E0FD144BC3F80080144B1C60144BE7
:104A28001F60144B1D60FFF7B5FE012807D0013643
:104A3800E6E72A462146104818F01BFBDFE7C820A6
:104A480018F010F90D4B58690028C4D00120C2E7AE
:104A58004FF0FF30BFE700BF8DCA0020307703005A
:104A6800DC6F03008CCA0020E0D70020E8D70020C4
:104A7800E4D70020DCD7002040770300EC1F01209A
:104A880010B50A481BF084FE0446094B00221A7030
:104A9800642018F0E7F80CB9002010BD054B1A681F
:104AA800054B1968054818F0E4FAF5E754D70020D3
:104AB8008DCA0020DCD70020E8D70020C877030083
:104AC80070B582B004460E4610F00AFD054632461F
:104AD800214610F0DFFC284610F068FC0446014629
:104AE800104818F0C6FA2046FCF783FC00902346CD
:104AF80000220D490D48FFF789FA10B90C4B1B78B5
:104B08003BB9284610F042FB204614F0ADFE02B037
:104B180070BD084B1A68084B1968084818F0A9FABC
:104B2800EFE700BFEC7703001078030054D70020AC
:104B38008CCA0020DCD70020E8D70020407803008A
:104B480070B504460146104818F093FA20461EF046
:104B58004AFB0E491EF060FBA0B10646846800E0DF
:104B680024687CB1256A0A492846FCF738FC0028E5
:104B7800F6D0294630461EF04FFB01692846FFF75C
:104B88009FFFEDE770BD00BF7C7803009C780300B1
:104B9800A478030010B51EF026FB44491EF03CFB28
:104BA800046943492046FCF71AFC38B341492046BA
:104BB800FCF715FC00282DD03F492046FCF70FFCD8
:104BC800002833D03D492046FCF709FC00284CD08A
:104BD8003B492046FCF703FC002852D039492046BF
:104BE800FCF7FDFB68B9384B1B78002B55D13748CB
:104BF8001BF0CEFD364B00221A7002E0324B1B78B8
:104C080003B910BD334B1A68334B1968334818F091
:104C180030FAF6E72C4B1B78002BF2D02D4B1A6894
:104C28002D4B19682E4818F024FAEAE727481BF09C
:104C3800AFFD642018F016F8234B1B786BB9294B8D
:104C48001A68244B1968244B1868FFF7C3FCC0B2D4
:104C5800FFF7A0FDFFF778FBD3E71E4B1A681E4B42
:104C68001968214818F005FAE9E7174B1B78002B5B
:104C7800C7D0184B1A68184B19681C4818F0F9F96E
:104C8800BFE7114B1B78002BBBD0124B1A68124B95
:104C98001968174818F0EDF9B3E70E4B1A680E4B70
:104CA8001968144818F0E5F9A1E700BFB0780300C7
:104CB800B8780300FC7803003C7903007C79030092
:104CC800BC790300F87903008CCA002054D700206F
:104CD8008DCA0020DCD70020E8D70020C078030068
:104CE80004790300E4D700204479030084790300A1
:104CF800C4790300007A03002DE9F04F85B005461A
:104D0800FFF74AF90646704917F0D3FF6F4B9B69C6
:104D1800834280F2CA806D4B5C691CB1002005B0EB
:104D2800BDE8F08F28461EF05EFA834610F0D8FBE7
:104D38000390002843D0654D2A686549039F38468B
:104D480010F0A8FB6A686349384610F0A3FB0021FD
:104D580058461EF059FA60491EF05EFA02695F492A
:104D6800384610F097FB002200235D49384610F0C2
:104D78005BFB10F0B5FB054602465A49384610F071
:104D88001DFB594A5949284610F084FB584A59498D
:104D9800284610F07FFB584B1A685849284610F0EF
:104DA80079FB10F093FB024602905549384610F003
:104DB80005FB58461EF01DFA8246A1463AE05148C6
:104DC80018F057F94FF0FF30A9E7494658461EF04A
:104DD8001BFA074610F084FB0546014602981EF0B0
:104DE80025FA494938461EF017FA02694749284604
:104DF80010F050FB384938461EF00EFA0269444953
:104E0800284610F047FB434A4349284610F042FB26
:104E180010F05CFB804602463949284610F0CEFA6D
:104E28003E4938461EF0F8F9014640461EF0FEF9A4
:104E380009F10109D145C8DB039810F0B7FA054616
:104E4800374818F016F92846FCF7D3FA00902B4695
:104E580001221E49096B3348FFF7D8F80346324A46
:104E6800106060B9314B1B88314A126831490968B2
:104E7800314818F0FEF8314B00221A700BE02C4A2A
:104E880012682C4909682E4818F0F3F803E0325DDF
:104E98000D4B1A550134182CF9DD0A2017F0E2FEE3
:104EA800039810F073F9012039E7264B1B780BB9EA
:104EB800002034E71E4B1A681E4B1968224818F068
:104EC800D8F800202BE700BF08C70020EC1F0120FE
:104ED800F874030000750300647A030098C10300A6
:104EE80084C003006C7A0300707A0300CCA303002B
:104EF800747A0300787A0300E0D70020CC9A030084
:104F0800E0C403003C7A03007C7A030098A2030003
:104F1800887A0300D0A703008C7A0300907A0300F4
:104F2800987A030054D7002040D70020EC4D012088
:104F3800DCD70020E8D70020B07A0300F64D012026
:104F4800DC7A03008CCA00202C7B030070B582B089
:104F580006460D4610F0C4FA00284CD004462A4BE9
:104F68001A682A4910F096FA294B1A6829492046E6
:104F780010F090FAFFF710F802462749204610F083
:104F880089FA2846FBF72EFA02460B4623492046A3
:104F980010F04AFA10F0A4FA0546024620492046C5
:104FA80010F00CFA1F4A2049284610F073FA1F4ADD
:104FB8001F49284610F06EFA1E4B1A681E492846EB
:104FC80010F068FA30461EF00EF902461B492046DA
:104FD80010F0F4F9204610F0E9F90446FCF709FA54
:104FE8000090234601221649096B1648FFF70EF870
:104FF80028B102B070BD144818F03BF8F9E713481F
:1050080018F037F8F5E700BFDCD700207C7A0300FA
:10501800E8D70020F874030098C1030084C0030097
:105028006C7A0300707A0300CCA30300747A03003F
:10503800787A0300E0D70020CC9A0300E0C403008C
:10504800EC1F012054D70020607B0300907B0300F5
:105058002DE9F041A0B005464F4920F0B8FC441BAB
:10506800063C782C00DD782479263246002101A8F8
:1050780020F0E2FA33462246291D01A820F0C9FA99
:1050880001A9464817F0F5FF28461EF0ACF804467B
:1050980043491EF0C1F80669424920461EF0BCF893
:1050A8000569414920461EF0B7F840492846FCF7F3
:1050B80096F978B13E492846FCF791F9002837D08F
:1050C8003C492846FCF78BF9A8B1DFF8EC800025AD
:1050D8002F4631E0344920461EF09EF84369012BE3
:1050E80005D0002B4CD1354817F0C3FF48E03448B1
:1050F80017F0BFFF44E0334920461EF08DF8044600
:105108001EF0A1F820B9DFF8B0800B25072713E0BF
:10511800002120461EF078F82B491EF07DF8044641
:105128001EF088F878B3D4F810800B25072703E021
:10513800DFF884800525062710F0D2F9044638B335
:105148003246174910F0A6F91B4A2049204610F0AC
:10515800A1F942461E49204610F09CF93846FBF753
:1051680041F902460B461B49204610F05DF92046DE
:1051780010F01CF92946FFF7E9FE204610F006F862
:1051880020B0BDE8F081DFF830800B250727D3E792
:10519800114817F06EFFF3E7AC7B0300B47B030004
:1051A800C47B0300B0780300CC7B0300D47B0300EE
:1051B8001C7C0300247C0300D0A70300FC7B0300B5
:1051C800DC7B03002C7C03007C7A03006C7C0300EE
:1051D800707C0300787C0300347C03002DE9F041E7
:1051E80000AF15461C46083323F00703ADEB030D4B
:1051F8002246684620F000FA00230DF8043068467D
:10520800FCF7F7F805282DD96E461122474928469C
:1052180020F0A7FB48B31E224549284620F0A1FBF1
:1052280000283BD110F05CF9044630461DF0DBFF46
:1052380002464049204610F0C1F83F4B1A683F49E2
:10524800204610F027F9204610F0B0F80546FFF781
:1052580077FC0A2017F006FD20460FF097FF284636
:1052680014F002FBBD46BDE8F08130461DF0BBFFDF
:105278000446314B1A68314910F00CF9204610F0F9
:1052880095F80546FFF75CFC0A2017F0EBFC204672
:105298000FF07CFF284614F0E7FAE3E730461DF0EC
:1052A800A2FF044626491DF0B7FF0569254928468F
:1052B800FCF795F8804620B123492846FCF78FF87B
:1052C80080BB224B1B783BB1B8F1000F1AD02049A4
:1052D8002846FCF784F8E8B11E4920461DF0A1FFD6
:1052E80010F064F80546FFF7B3FE0A2017F0BAFC81
:1052F80020460FF04BFF284614F0B6FA0A2017F0A4
:10530800B1FCAFE70C4B1A68134B1968134817F038
:10531800B0FEDCE7084B1A680F4B1968104817F005
:10532800A8FED9E73046FFF735FCE7E77C7C0300A9
:10533800907C03009C780300DCD700207C7A030073
:10534800B07803001C7C0300247C03008CCA002076
:10535800EC7C0300907A0300E8D70020B07C0300BF
:10536800F47C030038B50C460978092900F2A880B6
:10537800DFE801F005386986A6A6A694A6A2E36927
:10538800002B5FD1FEF76AFE10F0AAF804464E4BD8
:105398001A684E4910F07EF84D4B1A684D49204660
:1053A80010F078F84C4D2A464C49204610F072F817
:1053B80000224B49204610F01BF82A46494920464E
:1053C80010F068F801224849204610F011F8474AC1
:1053D8004749204610F05EF820460FF0DFFFFFF740
:1053E80037FE2FE010F07CF80446374B1A6837492F
:1053F80010F050F8364B1A683649204610F04AF833
:10540800354D2A463549204610F044F800223449E3
:1054180020460FF0EDFF2A463249204610F03AF8B0
:105428000022314920460FF0E3FF304A3049204638
:1054380010F030F820460FF0B1FFFFF709FE2D4BB2
:1054480000221A7038BD05466169FEF72DFE011E5F
:1054580006DB6369626828492848FFF7BFFEF1E761
:10546800274817F006FE274817F003FE28461BF0CA
:105478008FF901460028E5D0234817F0FAFDE1E747
:10548800E16919B1214817F0F4FDDBE7A18820484C
:1054980017F0EFFD1F4B01221A70D3E7E16919B12C
:1054A8001D4817F0E6FDCDE7A1881C4817F0E1FD7F
:1054B800104B01221A70C5E7194817F0DAFDC1E749
:1054C800184817F0D6FDBDE7E8D700202C7D03006B
:1054D800DCD700207C7A0300D0A70300AC7B030054
:1054E800347D0300C47B0300CC7B0300D47B030022
:1054F800B0780300F74D0120ECEF0020387D030061
:10550800447D03006C7D03008C7D0300A87D0300AF
:10551800C07D0300F64D0120D87D0300F07D030017
:10552800087E03001C7E030070B50FF0CFFF002833
:1055380039D006460FF0D4FF0446014630461DF028
:1055480075FE1B4A1B4920460FF0A4FFFEF724FDF9
:105558000246194920460FF09DFF0FF0C1FF05468E
:105568000246164920460FF029FF154BB3F90000F3
:10557800FAF738FF02460B46124928460FF054FF47
:10558800114A124928460FF085FF114B1968114836
:1055980017F06FFD30460FF009FF044630460FF054
:1055A800F5FD204670BD0C4817F063FDF9E700BF14
:1055B8005C7E03007C7A0300647A0300907A03001F
:1055C800EA4D0120687E030010D70020707E03009A
:1055D8003CD70020807E0300307E030008B5FEF72C
:1055E80051FEFFF7A1FF044B1860FFF785FB4FF44E
:1055F800FA6017F037FB08BDE8C60020F0B5A3B085
:1056080002AF984817F035FD974B00221A60974B68
:1056180001221A70964B1B787BB3954B00221A70A7
:10562800FEF78CFA002840F08780924BFB6102233A
:105638003B7100237B71BB71FB717A68BA611946B3
:1056480063F3000163F3410163F3820163F3C5016E
:10565800032262F38811082262F3532163F31F5176
:1056680007F11802844802F08BFEFEF775FA00284D
:1056780062D1FEF7CBFB00285ED1804B7B6302230F
:105688003B7100237B71BB71FB717A683A631946E1
:1056980063F3000163F3410163F3820163F3C5011E
:1056A800032262F38811082262F3532163F31F5126
:1056B80007F13002704802F063FE1CF050FF054607
:1056C80000283FD06C4688B002AB13F110020ED010
:1056D8000C213AB10846042901DD694E5E610828AB
:1056E80008DD9D610B292ADD4FF00C0C04E06FF0FA
:1056F8000041EEE76FF01B0C3AB10321397100212C
:105708007971B971F9717868186100216FF3000136
:105718006FF341016FF382016FF3C501012363F356
:105728008811CCF30A0C6CF353216FF31F5100233B
:10573800514802F025FEA5468437BD46F0BD6FF0FE
:105748001B0CD9E74F4BFB6402233B7100237B7191
:10575800BB71FB717A68BA64194663F3000163F39D
:10576800410163F3820163F3C501032262F38811E7
:10577800082262F3532163F31F5107F148023E48A0
:1057880002F0FEFD4FF4FA6017F06CFA3E4817F08D
:1057980070FC3E4B00933E4B3E4A3F493F48FFF763
:1057A80013F9B0B33E4BFB6702233B7100237B71B7
:1057B800BB71FB717A68BA67194663F3000163F33A
:1057C800410163F3820163F3C501012262F3881189
:1057D800082262F3532163F31F5107F17802264828
:1057E80002F0CEFDFFF7FAFE40F6C41017F03AFAC1
:1057F800FFF746F990BB40F6B83017F033FA29485E
:1058080017F037FC1CF0AFFE41F2883017F02AFA87
:1058180092E717F03DFA0028E4D0234B7B66022379
:105828003B7100237B71BB71FB717A683A6619463C
:1058380063F3000163F3410163F3820163F3C5017C
:10584800012262F38811082262F3532163F31F5186
:1058580007F16002084802F093FDC3E7134817F008
:1058680008FC69E7A87E03003CD700208DCA002009
:105878008ECA0020C07E030030690300007F030049
:10588800187F0300487F03004C7F03007C7F0300E0
:10589800494B0100595001005C7E0300587F03000A
:1058A800847F0300E87F0300A07F0300C87F030014
:1058B8004FF0000C944515D210B511F80C30584033
:1058C8000309094CE35C83EA00135FFA83FEC3F320
:1058D8000313E05C80EA0E10C0B20CF1010C944591
:1058E800EBD310BD704700BF209703002DE9F04FA0
:1058F80091B005920293134602F004020092C3F39A
:10590800C20210F00303019340F02D8280468A46BC
:105918000132041D00284FD0B8F1000F05D0A4EBC8
:1059280008030433534500F22182029B5D1E019B4C
:1059380004930693039300264FF0FF3B0427B946D0
:10594800B8F1000F01D0029B2360531E0793002A71
:1059580040F35F81059B13F0020228D00120A4EBDD
:1059680008018B081AB1B1F5007F80F00582039910
:105978000F2900F20482B8F1000F00F06281DBB257
:1059880001F140026A4402F8103C02F820BC0028E9
:1059980000F0538163F07F0301F140026A4402F88A
:1059A800103C049B01330493039B01330393043499
:1059B8000022CC4640463DE001F0070A5444CAF1B3
:1059C800080AA9E7002634E0002632E0002630E085
:1059D8000827BC462DE025292BD10BF1010B012608
:1059E8000427BC4625E04729EED82A2914D32A39AA
:1059F800C9B24FF0010E0EFA01F14FF6DA7E11EA44
:105A08000E0F16D111F0625F40F0C18011F0010F46
:105A180040F08C8000260CE0252903D10BF1FF3BD8
:105A2800002606E001D9002603E0202901D0232919
:105A3800CCD11D466B1C6978002900F01B81002E13
:105A4800C9D07A29BED84C29CDD34C392E2961D852
:105A58000FF2040E5EF821F03B5A01001D5B0100B5
:105A68001D5B01001D5B01001D5B01001D5B01004A
:105A78001D5B01001D5B01001D5B01001D5B01003A
:105A88001D5B01001D5B01002D5B01001D5B01001A
:105A98001D5B01001D5B01001D5B01001D5B01001A
:105AA8001D5B01001D5B01001D5B0100975B010090
:105AB8001D5B01002D5B01002D5B0100975B010060
:105AC800975B0100975B01003B5A01002D5B0100C9
